:020000040000fa
:080000000001040000000000f3
:020000040000fa
:04000800760200007c
:020000040000fa
:04000c007602000078
:020000040000fa
:040010007602000074
:020000040000fa
:040014007602000070
:020000040000fa
:04001800760200006c
:020000040000fa
:04001c007602000068
:020000040000fa
:040020007602000064
:020000040000fa
:040024007602000060
:020000040000fa
:04002800760200005c
:020000040000fa
:04002c007602000058
:020000040000fa
:040030007602000054
:020000040000fa
:040034007602000050
:020000040000fa
:04003800760200004c
:020000040000fa
:04003c007602000048
:020000040000fa
:040040007602000044
:020000040000fa
:040044007602000040
:020000040000fa
:04004800760200003c
:020000040000fa
:04004c007602000038
:020000040000fa
:040050007602000034
:020000040000fa
:040054007602000030
:020000040000fa
:04005800760200002c
:020000040000fa
:04005c007602000028
:020000040000fa
:040060007602000024
:020000040000fa
:040064007602000020
:020000040000fa
:04006800c8010000cb
:020000040000fa
:04006c007602000018
:020000040000fa
:040070007602000014
:020000040000fa
:040074007602000010
:020000040000fa
:04007800760200000c
:020000040000fa
:04007c007602000008
:020000040000fa
:040080007602000004
:020000040000fa
:04008400f201000085
:020000040000fa
:0400880076020000fc
:020000040000fa
:04008c0076020000f8
:020000040000fa
:0400900076020000f4
:020000040000fa
:0400940076020000f0
:020000040000fa
:0400980076020000ec
:020000040000fa
:04009c0076020000e8
:020000040000fa
:0400a00076020000e4
:020000040000fa
:0400a40076020000e0
:020000040000fa
:0400a80076020000dc
:020000040000fa
:0400ac0076020000d8
:020000040000fa
:0400b00076020000d4
:020000040000fa
:0400b40076020000d0
:020000040000fa
:0400b8001e02000024
:020000040000fa
:0400bc004a020000f4
:020000040000fa
:0400c00076020000c4
:020000040000fa
:0400c40076020000c0
:020000040000fa
:0400c80076020000bc
:020000040000fa
:0400cc0076020000b8
:020000040000fa
:0400d00076020000b4
:020000040000fa
:0400d40076020000b0
:020000040000fa
:0400d80076020000ac
:020000040000fa
:04010800760200007b
:020000040000fa
:04010c007602000077
:020000040000fa
:040110007602000073
:020000040000fa
:04011400760200006f
:020000040000fa
:04011800760200006b
:020000040000fa
:04011c007602000067
:020000040000fa
:040120007602000063
:020000040000fa
:04012400760200005f
:020000040000fa
:04012800760200005b
:020000040000fa
:04012c007602000057
:020000040000fa
:040130007602000053
:020000040000fa
:04013400760200004f
:020000040000fa
:04013800760200004b
:020000040000fa
:04013c007602000047
:020000040000fa
:040140007602000043
:020000040000fa
:04014400760200003f
:020000040000fa
:04014800760200003b
:020000040000fa
:04014c007602000037
:020000040000fa
:040150007602000033
:020000040000fa
:04015400760200002f
:020000040000fa
:04015800760200002b
:020000040000fa
:04015c007602000027
:020000040000fa
:040160007602000023
:020000040000fa
:04016400760200001f
:020000040000fa
:04016800760200001b
:020000040000fa
:04016c007602000017
:020000040000fa
:040170007602000013
:020000040000fa
:04017400760200000f
:020000040000fa
:04017800760200000b
:020000040000fa
:04017c007602000007
:020000040000fa
:040180007602000003
:020000040000fa
:0401840076020000ff
:020000040000fa
:0401880076020000fb
:020000040000fa
:04018c0076020000f7
:020000040000fa
:0401900076020000f3
:020000040000fa
:0401940076020000ef
:020000040000fa
:0401980076020000eb
:020000040000fa
:04019c0076020000e7
:020000040000fa
:0401a00076020000e3
:020000040000fa
:0401a40076020000df
:020000040000fa
:0401a80076020000db
:020000040000fa
:0401ac0076020000d7
:020000040000fa
:0401b00076020000d3
:020000040000fa
:0401b40076020000cf
:020000040000fa
:0401b80076020000cb
:020000040000fa
:0401bc0076020000c7
:020000040000fa
:0401c00076020000c3
:020000040000fa
:0401c40076020000bf
:020000040000fa
:0401c80076020000bb
:020000040000fa
:0401cc0076020000b7
:020000040000fa
:0401d00076020000b3
:020000040000fa
:0401d40076020000af
:020000040000fa
:0401d80076020000ab
:020000040000fa
:100200000f8020000e7f22000e01880000000000f9
:10021000000020000000e000020032000001200089
:100220002002880014000700b20007000000e00070
:1002300003003a0000002000010020000200370007
:100240000000200001002000810f7000010032003a
:1002500014000700000020000000e000020032004f
:100260000000020000000000fe020200000000008a
:100270000040da000000fe004440a900a000200079
:100280000000e0000300320000002000a001880010
:100290004440a800000006008a1f78008b1f7800e9
:1002a0000000060091018800800478000000eb0047
:1002b0001a003700e284440032a0b4009905ba0065
:1002c000e284440032a0b4009906ba00e2844400fb
:1002d00032a0b4000006eb00476fde00fd07b2005d
:1002e000636ce10003003a00ebff07000000eb0045
:1002f0000a003700606ce10004003a00005deb008a
:100300008b05e900fdff3e00040037006168e10055
:10031000010032000086eb000b00070019c7ba008d
:100320001905ba000e04e00003003a000a00e000dc
:10033000e0ff3a0000000600fe07b2009e018800c0
:100340008a047800f5ff3700395dba008b05e900b3
:100350000c003200295dba008b05e900080032006c
:100360000c00e00003003a00e284440032a0b40034
:10037000f5ff370019ddba008b05e900faff3a00f6
:100380008904e800e184440032a0b40000000600c3
:10039000809fbe003400f80000002000a00188000b
:1003a0000000fa00a0168000004078006140600064
:1003b00000c0ea00614060000080fb006100600056
:1003c000a11680000100a10001007000a0168800a5
:1003d0008600a9000080fa003400f9004f00be003a
:1003e00000400600809fbe003400f800000020009e
:1003f000a00188000000fa00a01680000000d100d3
:100400006140600000c0ea00614060000080fb00c5
:100410006100600000004000a11680000110a100f2
:1004200001007000a016880086e0a9000080fa0094
:100430003400f9004f00be0000400600809fbe005f
:100440003400f80000002000a00188000000fa003d
:10045000a01680004200de006140600000c0ea009b
:10046000614060000080fb00610060004200dd0030
:10047000a11680000120a10001007000a0168800d4
:100480008880a9000080fa003400f9004f00be0007
:1004900000400600809fbe003400f80000002000ed
:1004a000a00188000000fa00a01680004300de00d2
:1004b0006140600000c0ea00614060000080fb0015
:1004c000610060004300dd00a11680000130a10042
:1004d00001007000a016880088a0a9000080fa0022
:1004e0003400f9004f00be00004006000040da0072
:0804f0000000fe000000050001
:020000040000fa
:1004f800636f0000756300006f7500002021000025
:0405080000000000ef
:020000040000fa
:10050c000000fa00e922a900e522a90041118000af
:10051c00c0ff2f00008060000000a0004011880088
:10052c0040118000c001b300401188002902a900cd
:10053c0028c2a90028a2a80027e2a8000080fa007f
:10054c00000006000200fa00004f78001e00fb00bd
:10055c005011880000000000301180006200600023
:10056c000000e000fcff3a000080fa0000000600ea
:10057c000400fa00000f7800110798000080fa00c0
:10058c00000006000200fa00004f780080cab30099
:10059c00ecff07001e407800eaff07000080fa001d
:1005ac00000006000400fa00100798000000eb00a1
:1005bc00000f7800060037001e0078009e009000a7
:1005cc0000804000104078001e0fe800edff07008f
:1005dc001e0078009e0090000080400010407800c3
:1005ec000004e000f4ff3a000080fa00000006006e
:1005fc000000fa00d202a9008220a800e1048000c9
:10060c0080ff2f00008060000000a000e004880044
:10061c008600a9008e00a800d222a9008240a80062
:10062c00f1048000f0ff28000080600000c0a000f2
:10063c00f004880086e0a9008ee0a800d242a90050
:10064c008260a8003105800080ff2f0000806000d0
:10065c000000a000300588008880a9009080a800c8
:10066c00d262a9008280a80031058000f0f82f002a
:10067c00008060000040a0003005880088a0a90020
:10068c0090a0a8009eff070020c8b300adff070094
:0c069c00c0272800c3ff0700ffff370045
:020000040000fa
:0200000401f009
:04000000f7bf000046
:020000040000fa
:0200000401f009
:04000400ff7f00007a
:020000040000fa
:0200000401f009
:04000800ffff0000f6
:020000040000fa
:0200000401f009
:04001400ffff0000ea
:020000040000fa
:0200000401f009
:04001800ffff0000e6
:00000001FF
