:020000040000fa
:080000000001040000000000f3
:020000040000fa
:0400080018030000d9
:020000040000fa
:04000c0018030000d5
:020000040000fa
:0400100018030000d1
:020000040000fa
:0400140018030000cd
:020000040000fa
:0400180018030000c9
:020000040000fa
:04001c0018030000c5
:020000040000fa
:0400200018030000c1
:020000040000fa
:0400240018030000bd
:020000040000fa
:0400280018030000b9
:020000040000fa
:04002c0018030000b5
:020000040000fa
:0400300018030000b1
:020000040000fa
:0400340018030000ad
:020000040000fa
:0400380018030000a9
:020000040000fa
:04003c0018030000a5
:020000040000fa
:0400400018030000a1
:020000040000fa
:04004400180300009d
:020000040000fa
:040048001803000099
:020000040000fa
:04004c001803000095
:020000040000fa
:040050001803000091
:020000040000fa
:04005400180300008d
:020000040000fa
:040058001803000089
:020000040000fa
:04005c001803000085
:020000040000fa
:040060001803000081
:020000040000fa
:04006400180300007d
:020000040000fa
:04006800c8010000cb
:020000040000fa
:04006c001803000075
:020000040000fa
:040070001803000071
:020000040000fa
:04007400180300006d
:020000040000fa
:040078001803000069
:020000040000fa
:04007c001803000065
:020000040000fa
:040080001803000061
:020000040000fa
:04008400fc0100007b
:020000040000fa
:040088001803000059
:020000040000fa
:04008c001803000055
:020000040000fa
:040090001803000051
:020000040000fa
:04009400180300004d
:020000040000fa
:040098001803000049
:020000040000fa
:04009c001803000045
:020000040000fa
:0400a0001803000041
:020000040000fa
:0400a400180300003d
:020000040000fa
:0400a8001803000039
:020000040000fa
:0400ac001803000035
:020000040000fa
:0400b0001803000031
:020000040000fa
:0400b400180300002d
:020000040000fa
:0400b8003202000010
:020000040000fa
:0400bc0064020000da
:020000040000fa
:0400c0001803000021
:020000040000fa
:0400c400180300001d
:020000040000fa
:0400c8001803000019
:020000040000fa
:0400cc009602000098
:020000040000fa
:0400d0001803000011
:020000040000fa
:0400d400180300000d
:020000040000fa
:0400d8001803000009
:020000040000fa
:0401080018030000d8
:020000040000fa
:04010c0018030000d4
:020000040000fa
:0401100018030000d0
:020000040000fa
:0401140018030000cc
:020000040000fa
:0401180018030000c8
:020000040000fa
:04011c0018030000c4
:020000040000fa
:0401200018030000c0
:020000040000fa
:0401240018030000bc
:020000040000fa
:0401280018030000b8
:020000040000fa
:04012c0018030000b4
:020000040000fa
:0401300018030000b0
:020000040000fa
:0401340018030000ac
:020000040000fa
:0401380018030000a8
:020000040000fa
:04013c0018030000a4
:020000040000fa
:0401400018030000a0
:020000040000fa
:04014400180300009c
:020000040000fa
:040148001803000098
:020000040000fa
:04014c001803000094
:020000040000fa
:040150001803000090
:020000040000fa
:04015400180300008c
:020000040000fa
:040158001803000088
:020000040000fa
:04015c001803000084
:020000040000fa
:040160001803000080
:020000040000fa
:04016400180300007c
:020000040000fa
:040168001803000078
:020000040000fa
:04016c001803000074
:020000040000fa
:040170001803000070
:020000040000fa
:04017400180300006c
:020000040000fa
:040178001803000068
:020000040000fa
:04017c001803000064
:020000040000fa
:040180001803000060
:020000040000fa
:04018400180300005c
:020000040000fa
:040188001803000058
:020000040000fa
:04018c001803000054
:020000040000fa
:040190001803000050
:020000040000fa
:04019400180300004c
:020000040000fa
:040198001803000048
:020000040000fa
:04019c001803000044
:020000040000fa
:0401a0001803000040
:020000040000fa
:0401a400180300003c
:020000040000fa
:0401a8001803000038
:020000040000fa
:0401ac001803000034
:020000040000fa
:0401b0001803000030
:020000040000fa
:0401b400180300002c
:020000040000fa
:0401b8001803000028
:020000040000fa
:0401bc001803000024
:020000040000fa
:0401c0001803000020
:020000040000fa
:0401c400180300001c
:020000040000fa
:0401c8001803000018
:020000040000fa
:0401cc001803000014
:020000040000fa
:0401d0001803000010
:020000040000fa
:0401d400180300000c
:020000040000fa
:0401d8001803000008
:020000040000fa
:100200000f8320000e7f22000e01880000000000f6
:10021000000020000000e000020032000001200089
:100220002002880014000700030107000000e0001e
:1002300003003a00a04a200001002000020037001d
:100240000000200001002000810f7000010032003a
:1002500014000700000020000000e000020032004f
:1002600000000200000000009e04020000000000e8
:100270000040da000000fe004440a9000000200019
:100280000000e0000300320000002000a001880010
:100290004440a800000006008a1f78008b1f7800e9
:1002a0000000060091018800800478000000eb0047
:1002b0001a003700e284440032a0b4009905ba0065
:1002c000e284440032a0b4009906ba00e2844400fb
:1002d00032a0b4000006eb00476fde00fd07b2005d
:1002e000636ce10003003a00ebff07000000eb0045
:1002f0000a003700606ce10004003a00005deb008a
:100300008b05e900fdff3e00040037006168e10055
:10031000010032000086eb000b00070019c7ba008d
:100320001905ba000e04e00003003a000a00e000dc
:10033000e0ff3a0000000600fe07b2009e018800c0
:100340008a047800f5ff3700395dba008b05e900b3
:100350000c003200295dba008b05e900080032006c
:100360000c00e00003003a00e284440032a0b40034
:10037000f5ff370019ddba008b05e900faff3a00f6
:100380008904e800e184440032a0b40000000600c3
:10039000809fbe00821f78003400f800000020001b
:1003a000a00188000000fa00a0168000004078003c
:1003b0006140600000c0ea00614060000080fb0016
:1003c00061006000a2168000e1ff2f008100610043
:1003d00001007000a0168800100020000040880076
:1003e0008600a9000080fa003400f9004f0178006f
:1003f0004f00be0000400600809fbe00821f7800b4
:100400003400f80000002000a00188000000fa007d
:10041000a01680000000d1006140600000c0ea002a
:10042000614060000080fb0061006000000040004f
:10043000a2168000d1ff2f00810061000100700032
:10044000a0168800100020001040880086e0a90057
:100450000080fa003400f9004f0178004f00be0020
:1004600000400600809fbe00821f78003400f80024
:1004700000002000a00188000000fa00a016800003
:100480004200de006140600000c0ea0061406000a0
:100490000080fb00610060004200dd00a2168000c9
:1004a000b1ff2f008100610001007000a0168800dc
:1004b0008880a9000080fa003400f9004f0178001c
:1004c0004f00be0000400600809fbe00821f7800e3
:1004d0003400f80000002000a00188000000fa00ad
:1004e000a01680004300de006140600000c0ea000a
:1004f000614060000080fb00610060004300dd009f
:10050000a216800071ff2f008100610001007000c1
:10051000a016880088a0a9000080fa003400f90025
:100520004f0178004f00be0000400600809fbe00d3
:100530003400f80000002000a00188000400fa0048
:10054000204080008000400080802000008040002b
:1005500090007800e0ff2f000080600010079800f6
:100560000000eb00000f7800000000003012800057
:10057000610060000000e000fcff320020408000cd
:100580000000e8002040880020408000f40f500068
:1005900001003a000428ef0000408000e10f500005
:1005a0000c003a00304080000000e8003040880035
:1005b0001e0090000000a00010079800304080004e
:1005c000f00fb000c200dd0000702000008f60005e
:1005d0000028ef0010408000e10f50000c003a00ae
:1005e000304080000000e900304088001e0090008c
:1005f0000000a0001007980030408000f00fb0000d
:10060000c200dd0000702000008f60000228ef00b3
:100610001e009000c01288001e007800d0128800d2
:100620000080fa003400f9004f00be0000400600d0
:0c0630000040da000000fe0000000500a1
:020000040000fa
:10063c000000fa00e922a900e522a900411180007e
:10064c00c0ff2f00008060000000a0004011880057
:10065c0040118000c001b300401188002902a9009c
:10066c0028c2a90028a2a80027e2a8000080fa004e
:10067c00000006000200fa00004f78001e00fb008c
:10068c0050118800000000003011800062006000f2
:10069c000000e000fcff3a000080fa0000000600b9
:1006ac000400fa00000f7800110798000080fa008f
:1006bc00000006000200fa00004f780080cab30068
:1006cc00ecff07001e407800eaff07000080fa00ec
:1006dc00000006000400fa00100798000000eb0070
:1006ec00000f7800060037001e0078009e00900076
:1006fc0000804000104078001e0fe800edff07005e
:10070c001e0078009e009000008040001040780091
:10071c000004e000f4ff3a000080fa00000006003c
:10072c000400fa00100798000000eb00000f78009e
:10073c000300370027010900000000001e0fe8002d
:10074c001e0090009e007800808f5000f9ff390049
:10075c000080fa00000006000000fa00d202a90096
:10076c008220a800e104800080ff2f000080600040
:10077c000000a000e00488008600a9008e00a800fc
:10078c00d222a9008240a800f1048000f0ff2800ca
:10079c000080600000c0a000f004880086e0a90082
:1007ac008ee0a8000080fa00000006000000fa00ad
:1007bc00dec2a80011128000001e20000100700093
:1007cc001012880010128000f000b3001012880084
:1007dc0060002000201288004022ef001010200042
:1007ec004012880010102000601288001112800046
:1007fc00f03f2f000080600000a0a00010128800c5
:10080c0010002000c012880000302000d012880098
:10081c00e0c2a800dec2a900e0c2a90010002000be
:10082c00bfff0700e0c2a80041e2a80000000000e2
:10083c0030128000610060000000e000fcff32001c
:10084c0010002000c012880030412000d012880017
:10085c000000000030128000610060000000e00029
:10086c00fcff320010002000c0128800a0102000f5
:10087c00d01288000000000030128000610060007f
:10088c000000e000fcff320010002000c0128800c5
:10089c0070542000d012880000000000301280003c
:1008ac00610060000000e000fcff3200100020003e
:1008bc00c0128800e0652000d01288000000000003
:1008cc0030128000610060000000e000fcff32008c
:1008dc0010002000c0128800c0752000d0128800c3
:1008ec000000000030128000610060000000e00099
:1008fc00fcff320010002000c01288000090200085
:10090c00d0128800000000003012800061006000ee
:10091c000000e000fcff3200803e200080ff07005a
:10092c009120a8008920a9000080fa000000060090
:10093c000000fa0088ff07003dff070020c8b30045
:08094c004cff0700ffff37001c
:020000040000fa
:1009540008080000280000000200000000008d00cc
:10096400273b4b008d67bb0079ff7f00bb798d006f
:10097400673b4b008d2700000073d800c5b473009b
:10098400984586000180450086739800c5b47300bd
:10099400d80000000008000006000000000000006d
:1009a400060800000200000002000000170000001a
:0409b400000000003f
:020000040000fa
:0200000401f009
:04000000f7bf000046
:020000040000fa
:0200000401f009
:04000400ff7f00007a
:020000040000fa
:0200000401f009
:04000800ffff0000f6
:020000040000fa
:0200000401f009
:04001400ffff0000ea
:020000040000fa
:0200000401f009
:04001800ffff0000e6
:00000001FF
